{
    "contractName": "CanonicalTransactionChain",
    "abi": [
        {
            "inputs": [
                {
                    "internalType": "address",
                    "name": "_libAddressManager",
                    "type": "address"
                },
                {
                    "internalType": "uint256",
                    "name": "_maxTransactionGasLimit",
                    "type": "uint256"
                },
                {
                    "internalType": "uint256",
                    "name": "_enqueueGasCost",
                    "type": "uint256"
                }
            ],
            "stateMutability": "nonpayable",
            "type": "constructor"
        },
        {
            "anonymous": false,
            "inputs": [
                {
                    "indexed": false,
                    "internalType": "uint256",
                    "name": "sideGasDiscountDivisor",
                    "type": "uint256"
                },
                {
                    "indexed": false,
                    "internalType": "uint256",
                    "name": "enqueueGasCost",
                    "type": "uint256"
                },
                {
                    "indexed": false,
                    "internalType": "uint256",
                    "name": "enqueueSideGasPrepaid",
                    "type": "uint256"
                }
            ],
            "name": "SideGasParamsUpdated",
            "type": "event"
        },
        {
            "anonymous": false,
            "inputs": [
                {
                    "indexed": true,
                    "internalType": "address",
                    "name": "sender",
                    "type": "address"
                },
                {
                    "indexed": true,
                    "internalType": "address",
                    "name": "target",
                    "type": "address"
                },
                {
                    "indexed": false,
                    "internalType": "uint256",
                    "name": "gasLimit",
                    "type": "uint256"
                },
                {
                    "indexed": false,
                    "internalType": "bytes",
                    "name": "data",
                    "type": "bytes"
                },
                {
                    "indexed": true,
                    "internalType": "uint256",
                    "name": "queueIndex",
                    "type": "uint256"
                },
                {
                    "indexed": false,
                    "internalType": "uint256",
                    "name": "timestamp",
                    "type": "uint256"
                }
            ],
            "name": "TransactionEnqueued",
            "type": "event"
        },
        {
            "inputs": [],
            "name": "MAX_ROLLUP_TX_SIZE",
            "outputs": [
                {
                    "internalType": "uint256",
                    "name": "",
                    "type": "uint256"
                }
            ],
            "stateMutability": "view",
            "type": "function"
        },
        {
            "inputs": [],
            "name": "MIN_ROLLUP_TX_GAS",
            "outputs": [
                {
                    "internalType": "uint256",
                    "name": "",
                    "type": "uint256"
                }
            ],
            "stateMutability": "view",
            "type": "function"
        },
        {
            "inputs": [
                {
                    "internalType": "address",
                    "name": "_target",
                    "type": "address"
                },
                {
                    "internalType": "uint256",
                    "name": "_gasLimit",
                    "type": "uint256"
                },
                {
                    "internalType": "bytes",
                    "name": "_data",
                    "type": "bytes"
                }
            ],
            "name": "enqueue",
            "outputs": [],
            "stateMutability": "nonpayable",
            "type": "function"
        },
        {
            "inputs": [],
            "name": "enqueueGasCost",
            "outputs": [
                {
                    "internalType": "uint256",
                    "name": "",
                    "type": "uint256"
                }
            ],
            "stateMutability": "view",
            "type": "function"
        },
        {
            "inputs": [],
            "name": "enqueueSideGasPrepaid",
            "outputs": [
                {
                    "internalType": "uint256",
                    "name": "",
                    "type": "uint256"
                }
            ],
            "stateMutability": "view",
            "type": "function"
        },
        {
            "inputs": [
                {
                    "internalType": "uint256",
                    "name": "_index",
                    "type": "uint256"
                }
            ],
            "name": "getQueueElement",
            "outputs": [
                {
                    "components": [
                        {
                            "internalType": "bytes32",
                            "name": "transactionHash",
                            "type": "bytes32"
                        },
                        {
                            "internalType": "uint40",
                            "name": "timestamp",
                            "type": "uint40"
                        },
                        {
                            "internalType": "uint40",
                            "name": "blockNumber",
                            "type": "uint40"
                        }
                    ],
                    "internalType": "struct Lib_OVMCodec.QueueElement",
                    "name": "_element",
                    "type": "tuple"
                }
            ],
            "stateMutability": "view",
            "type": "function"
        },
        {
            "inputs": [],
            "name": "getQueueLength",
            "outputs": [
                {
                    "internalType": "uint40",
                    "name": "",
                    "type": "uint40"
                }
            ],
            "stateMutability": "view",
            "type": "function"
        },
        {
            "inputs": [],
            "name": "libAddressManager",
            "outputs": [
                {
                    "internalType": "contract Lib_AddressManager",
                    "name": "",
                    "type": "address"
                }
            ],
            "stateMutability": "view",
            "type": "function"
        },
        {
            "inputs": [],
            "name": "maxTransactionGasLimit",
            "outputs": [
                {
                    "internalType": "uint256",
                    "name": "",
                    "type": "uint256"
                }
            ],
            "stateMutability": "view",
            "type": "function"
        },
        {
            "inputs": [
                {
                    "internalType": "string",
                    "name": "_name",
                    "type": "string"
                }
            ],
            "name": "resolve",
            "outputs": [
                {
                    "internalType": "address",
                    "name": "",
                    "type": "address"
                }
            ],
            "stateMutability": "view",
            "type": "function"
        },
        {
            "inputs": [
                {
                    "internalType": "uint256",
                    "name": "_sideGasDiscountDivisor",
                    "type": "uint256"
                },
                {
                    "internalType": "uint256",
                    "name": "_enqueueGasCost",
                    "type": "uint256"
                }
            ],
            "name": "setGasParams",
            "outputs": [],
            "stateMutability": "nonpayable",
            "type": "function"
        },
        {
            "inputs": [],
            "name": "sideGasDiscountDivisor",
            "outputs": [
                {
                    "internalType": "uint256",
                    "name": "",
                    "type": "uint256"
                }
            ],
            "stateMutability": "view",
            "type": "function"
        }
    ],
    "bytecode": "60806040523480156200001157600080fd5b5060405162000c2c38038062000c2c8339810160408190526200003491620001d3565b600080546001600160a01b0319166001600160a01b03851617905560408051633fabe5a360e21b81529051732514895c72f50d8bd4b4f9b1110f0d6bd2c975269163feaf968c9160048083019260a0929190829003018186803b1580156200009b57600080fd5b505afa158015620000b0573d6000803e3d6000fd5b505050506040513d601f19601f82011682018060405250810190620000d6919062000216565b5050506006555060408051633fabe5a360e21b8152905173143db3ceefbdfe5631add3e50f7614b6ba708ba79163feaf968c9160048083019260a0929190829003018186803b1580156200012957600080fd5b505afa1580156200013e573d6000803e3d6000fd5b505050506040513d601f19601f8201168201806040525081019062000164919062000216565b5050506007819055600184905560065491506200018690633b9aca00620002a8565b6200019291906200026a565b60028190556003829055620001a990829062000337565b600455506200036f915050565b80516001600160501b0381168114620001ce57600080fd5b919050565b600080600060608486031215620001e8578283fd5b83516001600160a01b0381168114620001ff578384fd5b602085015160409095015190969495509392505050565b600080600080600060a086880312156200022e578081fd5b6200023986620001b6565b94506020860151935060408601519250606086015191506200025e60808701620001b6565b90509295509295909350565b6000826200028657634e487b7160e01b81526012600452602481fd5b600160ff1b821460001984141615620002a357620002a362000359565b500590565b60006001600160ff1b0381841382841380821686840486111615620002d157620002d162000359565b600160ff1b84871282811687830589121615620002f257620002f262000359565b85871292508782058712848416161562000310576200031062000359565b8785058712818416161562000329576200032962000359565b505050929093029392505050565b600081600019048311821515161562000354576200035462000359565b500290565b634e487b7160e01b600052601160045260246000fd5b6108ad806200037f6000396000f3fe608060405234801561001057600080fd5b50600436106100b45760003560e01c806378f4b2f21161007157806378f4b2f214610175578063876ed5cb1461017f5780638d38c6c114610188578063b8f7700514610191578063e654b1fb146101aa578063edcc4a45146101b357600080fd5b8063299ca478146100b95780632a7f18be146100e9578063461a44781461012d5780634a84809414610140578063538eb9d6146101575780636fee07e014610160575b600080fd5b6000546100cc906001600160a01b031681565b6040516001600160a01b0390911681526020015b60405180910390f35b6100fc6100f7366004610700565b6101c6565b604080518251815260208084015164ffffffffff9081169183019190915292820151909216908201526060016100e0565b6100cc61013b3660046106b2565b610252565b61014960025481565b6040519081526020016100e0565b61014960045481565b61017361016e366004610648565b6102d9565b005b610149620186a081565b61014961c35081565b61014960015481565b60055460405164ffffffffff90911681526020016100e0565b61014960035481565b6101736101c1366004610718565b610462565b60408051606081018252600080825260208201819052918101919091526005828154811061020457634e487b7160e01b600052603260045260246000fd5b6000918252602091829020604080516060810182526002909302909101805483526001015464ffffffffff808216948401949094526501000000000090049092169181019190915292915050565b6000805460405163bf40fac160e01b81526001600160a01b039091169063bf40fac1906102839085906004016107c1565b60206040518083038186803b15801561029b57600080fd5b505afa1580156102af573d6000803e3d6000fd5b505050506040513d601f19601f820116820180604052508101906102d39190610625565b92915050565b6000333214156102ea57503361031c565b6103196040518060400160405280600e81526020016d29b4b232aa3930b739b0b1ba37b960911b815250610252565b90505b6000818585856040516020016103359493929190610784565b60408051601f19818403018152828252805160209182012060608401835280845264ffffffffff42811692850192835243811693850193845260058054600181810183556000838152975160029092027f036b6384b5eca791c62761152d0c79bb0604c104a5fb6f4eb0703f3154bb3db081019290925594517f036b6384b5eca791c62761152d0c79bb0604c104a5fb6f4eb0703f3154bb3db1909101805496518416650100000000000269ffffffffffffffffffff19909716919093161794909417905591549193506104089161081c565b905080866001600160a01b0316846001600160a01b03167f4b388aecf9fa6cc92253704e5975a6129a4f735bdbd99567df4ed0094ee4ceb5888842604051610452939291906107d4565b60405180910390a4505050505050565b60008054906101000a90046001600160a01b03166001600160a01b0316638da5cb5b6040518163ffffffff1660e01b815260040160206040518083038186803b1580156104ae57600080fd5b505afa1580156104c2573d6000803e3d6000fd5b505050506040513d601f19601f820116820180604052508101906104e69190610625565b6001600160a01b0316336001600160a01b03161461054a5760405162461bcd60e51b815260206004820181905260248201527f4f6e6c792063616c6c61626c6520627920746865204275726e2041646d696e2e604482015260640160405180910390fd5b6003819055600282905561055e81836107fd565b60048190556002546003546040805192835260208301919091528101919091527ff6c255eb0a312ea7ae1fea459669bf92ba79505453fe4097008bab495d56fada9060600160405180910390a15050565b600067ffffffffffffffff808411156105ca576105ca610849565b604051601f8501601f19908116603f011681019082821181831017156105f2576105f2610849565b8160405280935085815286868601111561060b57600080fd5b858560208301376000602087830101525050509392505050565b600060208284031215610636578081fd5b81516106418161085f565b9392505050565b60008060006060848603121561065c578182fd5b83356106678161085f565b925060208401359150604084013567ffffffffffffffff811115610689578182fd5b8401601f81018613610699578182fd5b6106a8868235602084016105af565b9150509250925092565b6000602082840312156106c3578081fd5b813567ffffffffffffffff8111156106d9578182fd5b8201601f810184136106e9578182fd5b6106f8848235602084016105af565b949350505050565b600060208284031215610711578081fd5b5035919050565b6000806040838503121561072a578182fd5b50508035926020909101359150565b60008151808452815b8181101561075e57602081850181015186830182015201610742565b8181111561076f5782602083870101525b50601f01601f19169290920160200192915050565b6001600160a01b03858116825284166020820152604081018390526080606082018190526000906107b790830184610739565b9695505050505050565b6020815260006106416020830184610739565b8381526060602082015260006107ed6060830185610739565b9050826040830152949350505050565b600081600019048311821515161561081757610817610833565b500290565b60008282101561082e5761082e610833565b500390565b634e487b7160e01b600052601160045260246000fd5b634e487b7160e01b600052604160045260246000fd5b6001600160a01b038116811461087457600080fd5b5056fea264697066735822122070979af424a7c83babcbd680556f4e7fc568bb5c34e471d0ca99084eedec928564736f6c63430008040033",
    "sourcePath": "f:/BKC/reactjs/demo/testBridge/contracts/MainChain/rollup/CanonicalTransactionChain.sol",
    "compiler": {
        "name": "solc",
        "version": "0.8.4+commit.c7e474f2"
    },
    "functionHashes": {
        "MAX_ROLLUP_TX_SIZE()": "876ed5cb",
        "MIN_ROLLUP_TX_GAS()": "78f4b2f2",
        "enqueue(address,uint256,bytes)": "6fee07e0",
        "enqueueGasCost()": "e654b1fb",
        "enqueueSideGasPrepaid()": "538eb9d6",
        "getQueueElement(uint256)": "2a7f18be",
        "getQueueLength()": "b8f77005",
        "libAddressManager()": "299ca478",
        "maxTransactionGasLimit()": "8d38c6c1",
        "resolve(string)": "461a4478",
        "setGasParams(uint256,uint256)": "edcc4a45",
        "sideGasDiscountDivisor()": "4a848094"
    },
    "gasEstimates": {
        "creation": {
            "codeDepositCost": "444200",
            "executionCost": "infinite",
            "totalCost": "infinite"
        },
        "external": {
            "MAX_ROLLUP_TX_SIZE()": "217",
            "MIN_ROLLUP_TX_GAS()": "195",
            "enqueue(address,uint256,bytes)": "infinite",
            "enqueueGasCost()": "1083",
            "enqueueSideGasPrepaid()": "1084",
            "getQueueElement(uint256)": "3122",
            "getQueueLength()": "1055",
            "libAddressManager()": "1027",
            "maxTransactionGasLimit()": "1039",
            "resolve(string)": "infinite",
            "setGasParams(uint256,uint256)": "infinite",
            "sideGasDiscountDivisor()": "1062"
        }
    }
}